:020000040800F2
:10000000000002203516000881160008811600083D
:100010008116000881160008811600080000000003
:100020000000000000000000000000008116000831
:10003000811600080000000081160008D1030008A6
:100040008116000881160008811600088116000834
:100050008116000881160008811600088116000824
:100060008116000881160008811600088116000814
:100070008116000881160008811600088116000804
:1000800081160008811600088116000881160008F4
:1000900081160008811600088116000881160008E4
:1000A00081160008811600088116000881160008D4
:1000B00081160008811600088116000881160008C4
:1000C00081160008811600088116000881160008B4
:1000D00081160008811600088116000881160008A4
:1000E00049060008811600088116000881160008DC
:1000F0008116000881160008811600088116000884
:100100008116000881160008811600088116000873
:100110008116000881160008811600088116000863
:100120008116000881160008811600088116000853
:100130008116000881160008811600088116000843
:100140008116000881160008811600088116000833
:100150008116000881160008811600088116000823
:100160008116000881160008811600088116000813
:100170008116000881160008811600088116000803
:08018000811600088116000839
:1001880010B5054C237833B9044810B10448AFF3CF
:1001980000800121217010BD6808002000000000C7
:1001A800B41F000808B5064B1BB106480649AFF353
:1001B80000800648016811B1054A02B1904708BDA0
:1001C80000000000B41F00086C080020640800202C
:1001D80000000000154B002B08BF134B9D46A3F5EC
:1001E800803A00218B460F461348144A121A01F030
:1001F80005F80F4B002B00D098470E4B002B00D072
:1002080098470020002104460D4600200C49002292
:10021800002300F01BFF00F0A7FF2046294601F04D
:10022800D7F900F069FF00BF0000080000000000D7
:100238000000000000000000680800208C09002071
:100248002111000810B520B1446801F01FFA2046BA
:10025800F9E710BD00680023002200EB830100F8D5
:1002680023200133B3F5B47F4A708A70CA70F3D182
:1002780070472DE9F041804608B9002431E0082094
:1002880001F0FCF904460028F7D04FF4B46001F0FF
:10029800F5F9054620602046FDB1FFF7DBFF002396
:1002A8006360274601260DE04FF4B46001F0E6F9DB
:1002B8000746286080B12846FFF7CCFF0020686019
:1002C80001362F4646450BD0082001F0D7F9786053
:1002D80047680546002FE7D12046FFF7B3FFCCE774
:1002E8007C602046BDE8F08107B50820012100F0B8
:1002F80073FC002101204FF470438DF804008DF841
:10030800051002228DF807100348009369468DF8FE
:10031800062000F03FFA0EBD000C024007B5082089
:10032800012100F059FC0120014600F055FC002095
:100338000F238DF804008DF8050003228DF80700BF
:100348006946054800938DF8062000F023FA034813
:10035800694600F01FFA0EBD000C02400000024082
:10036800032814D8DFE800F002060A0E08484FF404
:1003780000410AE006484FF4804106E004484FF483
:10038800005102E002484FF4805100F074BA7047FF
:10039800000C0240032814D8DFE800F002060A0E19
:1003A80008484FF400410AE006484FF4804106E04F
:1003B80004484FF4005102E002484FF4805100F025
:1003C8005CBA7047000C024010B50C4C23684FF41F
:1003D8007A72B3FBF2F102FB1130B0F5FA7F06D066
:1003E800531E984206D10120FFF7D4FF02E00120F6
:1003F800FFF7B6FF2268511C216010BD8408002059
:10040800034B19681A68521A8242FBD3704700BF1F
:1004180084080020374BD3F8882042F47000C3F8D2
:100428008800354B1968002041F001021A60986075
:10043800196821F0847222F48031304A19605A60B8
:10044800196882B021F480221A60D8600090019067
:10045800186840F480311960274B1A6802F400309C
:10046800019000994A1C0092019818B90099B1F5B9
:10047800A04FF1D11B6813F4003218BF012201927A
:100488000198012805D01B4A4FF00060906002B027
:100498007047194B1A48196C41F080521A64016868
:1004A80041F44042026098689860996841F40042BB
:1004B8009A609868134A40F4A05199605A60186885
:1004C80040F08071196018680B4A8101FBD50E4B0A
:1004D80040F205711960906820F0030191609368FB
:1004E80043F002009060044A916801F00C03082B65
:1004F800F9D1C8E700ED00E00038024010300024D0
:100508000070004019544007003C0240184B194A3B
:10051800996801F00C00042803D0082803D0164B72
:1005280019E0164B17E059685A6811F4800F59689A
:1005380014BF124B104B02F03F00B3FBF0F30C4812
:10054800C1F3881241685343C1F30142501C410072
:10055800084AB3FBF1F3064813608168054BC1F301
:10056800031298181A68017922FA01F21A60704782
:1005780000380240040000200024F40040787D0187
:10058800104808B500F054FDD0B10E4890F860301E
:100598000022FF2BC26506D100F04AFD50B90A4877
:1005A800012100F04BFD002BF6D0B62BF4D0C0F89B
:1005B800C020F4E7034800F03BFD0028E5D1EEE752
:1005C80008BD00BF88080020EC08002030B50120D5
:1005D80087B04FF4004501460024049500F0FCFA6A
:1005E800032304A915488DF816308DF814408DF8AA
:1005F80015408DF8174000F0CDF80F21204600F087
:1006080005FC08208DF80C408DF80D000124684485
:1006180002958DF80E4000F035FC282101A88DF8D0
:1006280004108DF805408DF806408DF8074000F05D
:100638009DFCFFF7A5FF07B030BD00BF00000240DA
:1006480010B50E4800F00BF904460D4800F007F904
:1006580004F00F040B4B44EA001083F8600003F128
:10066800640000F0E5FC18B90648012100F0E6FC3A
:100678004FF4004000F06AFC10BD00BF00000240CB
:10068800000C02408808002008B5374B984205D175
:100698000120014600F0DCFA01205EE0334988427F
:1006A80005D10220012100F0D3FA022055E0304A9A
:1006B800904205D10420012100F0CAFA04204CE040
:1006C8002C4B984205D10820012100F0C1FA0820DE
:1006D80043E02949884205D11020012100F0B8FAE9
:1006E80010203AE0254A904205D12020012100F04F
:1006F800AFFA202031E0224B984205D14020012159
:1007080000F0A6FA402028E01E49884205D1802042
:10071800012100F09DFA80201FE01B4A904207D17A
:100728004FF48070012100F093FA4FF4807014E0C8
:10073800164B984207D14FF40070012100F088FA57
:100748004FF4007009E0124988420BD14FF48060E1
:10075800012100F07DFA4FF480600021BDE80840D7
:1007680000F076BA08BD00BF000002400004024055
:1007780000080240000C0240001002400014024031
:1007880000180240001C02400020024000240240E1
:10079800002802402DE9F0410F680023012202FAE7
:1007A80003F202EA0705954232D15A00032406688B
:1007B80004FA02F4E443264006600E79D0F800C03B
:1007C80006FA02F8013E48EA0C0C012EC0F800C0F7
:1007D80015D8866891F805C02640866086680CFAA8
:1007E80002FC4CEA06068660466826EA050545606E
:1007F8008D79466805FA03F5ADB235434560C5689D
:100808002C40C460CD79C46805FA02F22243C26064
:100818000133102BC2D1BDE8F08100214FF6FF73E0
:100828000360017141718171C171704782B04FF4E9
:1008380080330193019A41EA02030193019AC2614C
:10084800C1610199C161C3690193C069019002B096
:100858007047036919420CBF0020012070470069E6
:1008680080B27047436919420CBF002001207047CD
:10087800406980B2704701837047418370470AB16D
:10088800018370474183704741617047436959400C
:100898004161704701F00703C908083130B59B0072
:1008A80050F821500F2404FA03F425EA040440F810
:1008B800214050F8214002FA03F2144340F8214045
:1008C80030BD00BF0E4B1A6842F0010000221860CC
:1008D8009A60196821F0A85020F41021196009487D
:1008E8000949586001F18060C3F88410C3F8880092
:1008F800196821F480201860DA60C3F88C207047EA
:10090800003802401030002400300020024B002242
:100918001A701870704700BF02380240034B1A68FB
:1009280022F0F80141EAC000186070470038024020
:10093800014B1860704700BF00004742064B002279
:1009480001281A701A7004D0042804D105201870E0
:1009580001E018707047704770380240014B18600A
:10096800704700BF800E474210B50143029C41EA20
:1009780082125B0842EA0460591E024A40EA0144B6
:10098800546010BD00380240014B1860704700BF2A
:10099800600047428001034B40EA0171C3F88410AC
:1009A800704700BF00380240014B1860704700BF15
:1009B80068004742800140EA0161034B41EA027244
:1009C800C3F88820704700BF00380240014B186008
:1009D800704700BF70004742014B1860704700BF66
:1009E8004C004742034B9A6822F0EC6210430143E3
:1009F8009960704700380240034B9A6822F07842A9
:100A0800104301439960704700380240034B9A68CD
:100A180022F0030108439860704700BF0038024085
:100A2800024B986800F00C00704700BF0038024085
:100A3800034B9A6822F0F00108439860704700BFA2
:100A480000380240034B9A6822F4E051084398604A
:100A5800704700BF00380240034B9A6822F4604197
:100A680041EAC00098607047003802401E4B9A68FF
:100A780002F00C01042910B503D0082903D01B4B40
:100A880018E01B4B16E05C685A68596814F4800F2C
:100A980014BF174B154B02F03F02B3FBF2F3124A97
:100AA800C1F3881451686343C1F30144621C5100C7
:100AB800B3FBF1F30C4903608C680E4AC4F30313CB
:100AC800D45C036823FA04F343608C68C4F382247B
:100AD800145D23FA04F484608968C1F34231525CDE
:100AE80023FA02F3C36010BD003802400024F4006A
:100AF80040787D011800002000F44073B3F5407F72
:100B0800084B08D1996820F0704221F4F81122F4BA
:100B180040720A439A60196F000541EA10521A6739
:100B2800704700BF00380240014B1860704700BF93
:100B38003C0E4742014B1860704700BF400E4742C9
:100B4800014B1860704700BF5C014742054BD3F862
:100B58008C20013822F01F0140EA0102C3F88C20E2
:100B6800704700BF00380240054BD3F88C2001388D
:100B780022F4F85141EA0022C3F88C20704700BFE4
:100B880000380240044BD3F88C2022F4401108436B
:100B9800C3F88C00704700BF00380240044BD3F8FC
:100BA8008C2022F440010843C3F88C00704700BF32
:100BB80000380240044BD3F88C2022F4403108431B
:100BC800C3F88C00704700BF00380240014B186022
:100BD800704700BFE0114742044B1A6B09B110433C
:100BE80001E022EA00001863704700BF00380240A5
:100BF800044B5A6B09B1104301E022EA0000586324
:100C0800704700BF00380240044B9A6B09B110438B
:100C180001E022EA00009863704700BF00380240F4
:100C2800044B1A6C09B1104301E022EA0000186471
:100C3800704700BF00380240044B5A6C09B110439A
:100C480001E022EA00005864704700BF0038024003
:100C5800044B1A6909B1104301E022EA0000186147
:100C6800704700BF00380240044B5A6909B110436D
:100C780001E022EA00005861704700BF00380240D6
:100C8800044B9A6909B1104301E022EA0000986117
:100C9800704700BF00380240044B1A6A09B110437C
:100CA80001E022EA00001862704700BF00380240E5
:100CB800044B5A6A09B1104301E022EA0000586265
:100CC800704700BF00380240044B1A6D09B1104349
:100CD80001E022EA00001865704700BF00380240B2
:100CE800044B5A6D09B1104301E022EA000058652F
:100CF800704700BF00380240044B9A6D09B1104399
:100D080001E022EA00009865704700BF0038024001
:100D1800044B1A6E09B1104301E022EA000018667C
:100D2800704700BF00380240044B5A6E09B11043A7
:100D380001E022EA00005866704700BF0038024010
:100D4800044B1A7809B1104301E022EA0000187038
:100D5800704700BF0D3802404309012B074A01D1F3
:100D6800136803E0022B0CBF136F536F00F01F00D2
:100D780023FA00F101F00100704700BF003802407B
:100D880007B5002301933120FFF7E6FF01994A1CBC
:100D98000192019BB3F5A04F01D00028F3D0312078
:100DA800FFF7DAFF003018BF01200EBD024B5A6F63
:100DB80042F080705867704700380240034BD9688A
:100DC80008420CBF00200120704700BF00380240D5
:100DD800014B1870704700BF0E38024008B501215A
:100DE8004FF48040FFF764FF4FF480400021BDE8D6
:100DF8000840FFF75DBF014B18607047003801409D
:100E0800014B1860704700BF2000274201F0030221
:100E180089080A4B023130B5920053F821500F244B
:100E280004FA02F425EA040443F8214053F8214067
:100E380000FA02F0044343F8214030BD0038014075
:100E4800014B1860704700BFDC002742014B186057
:100E5800704700BF00042742024B186AC0F3002005
:100E6800704700BF00380140044B054800221A6053
:100E78005A609A60DA605861704700BF003C0140D0
:100E8800FFFF7F00837910B5002B2AD01A4B016829
:100E98001C68CA4314401C605C6822405A6002798E
:100EA80002F1804404F59E321468214311600268FF
:100EB8009C684079D1430C409C60DC68102801EAAA
:100EC8000401D96006D1986810439860D9680A432C
:100ED800DA6010BD00F1804303F59E3319680A43B8
:100EE80008E00179006801F1804202F59E331A6832
:100EF80022EA00021A6010BD003C014000230C22C7
:100F080003600371427183717047024B1A69104381
:100F180018617047003C0140034B596908420CBFF7
:100F280000200120704700BF003C0140014B586180
:100F3800704700BF003C0140034B596908420CBF91
:100F480000200120704700BF003C0140014B586160
:100F5800704700BF003C014040F0BF60024B40F4C6
:100F68000031D960704700BF00ED00E0C37813B3CB
:100F78001749CB684178DA43C2F30223C3F104026C
:100F8800D2B201FA02F1CAB20F2141FA03F3817811
:100F98000B401A4303781201D1B203F1604202F503
:100FA8006143012283F80013007800F01F03410910
:100FB80002FA03F007E000780122410900F01F035C
:100FC80002FA03F02031034B43F82100704700BFB9
:100FD80000ED00E000E100E021F0604121F07F0237
:100FE800014B10439860704700ED00E0044B1A690C
:100FF80009B1104301E022EA00001861704700BF00
:1010080000ED00E0044B1A6804280CBF42F004020B
:1010180022F004021A60704710E000E0E41F0008A4
:101028000000002064080020680800208C090020C7
:10103800EC46A0E8F05F4FF000007047B0E8F05FC2
:10104800E546080008BF0120704700BF2DE9F041C0
:10105800274C2568D5F8484184B00746002C41D074
:1010680066681F2E1CDD234810B94FF0FF301FE0C3
:101078004FF4C87003910292019300F0FFFA0399AC
:10108800029A019B04460028EFD0D5F84861002059
:1010980060602660C5F84841C4F88801C4F88C012E
:1010A800656847B9A81C013544F820106560002020
:1010B80004B0BDE8F081D4F88861012004EB85080C
:1010C80000FA05F00643022FC8F88820C4F88861A2
:1010D800C8F80831E6D1D4F88C3143EA0002C4F8E4
:1010E8008C21DFE705F5A674C5F84841B8E700BFCD
:1010F800B01F00088516000808B50021044600F056
:101108001DF9044B1868C16B01B18847204600F0EF
:1011180047FF00BFB01F000870B5114B114C181BDA
:10112800811018D004EB81044E1E354654F8042D66
:1011380006F00106904775B126B154F8043D98476A
:10114800013D08D054F8040D8047013D54F8041DB2
:101158008847013DF6D1BDE8704000F02FBF00BFC1
:10116800E41F0008E01F0008F8B5204F204C381B8A
:10117800871017D07A1E2368012502F001069847C8
:10118800AF420FD02EB154F8041F02258847AF4252
:1011980008D0606880470235A268261D9047083449
:1011A800AF42F6D1134F144C00F002FF3B1B9F10C7
:1011B80018D07D1E216805F0010601258847AF4239
:1011C80011D02EB154F8040F02258047AF420BD03E
:1011D800626890470235A368261D98470834AF42D5
:1011E800F6D1F8BDF8BDF8BDF8BD00BFD81F00089E
:1011F800D81F0008E01F0008D81F0008F0B48407B3
:10120800034600F08E80541E002A00F08880E5070F
:10121800CEB211D41A46671E02F8016B1346154662
:1012280092070FD0002C7AD003F8016B9A073C463E
:101238001D4607D0013CEDE7034603F8016B9A070A
:101248001D46F7D1032C52D9CEB246EA06270F2CF9
:1012580047EA07432DD9A4F1100217460F2FC2F30E
:1012680000162B606B60AB60EB6005F1100216D9BD
:101278003EB1103F136053609360D36010320F2F5C
:101288000DD9203F02F11006136053609360D360BC
:10129800136153619361D36120320F2FF1D8A4F108
:1012A800100222F00F0204F00F041032032C154430
:1012B8001DD9271F3E462A46032E42F8043BC7F392
:1012C80080070DD927B1043E032E42F8043B07D905
:1012D8001746083E47F8043B53603A1D032EF7D8DB
:1012E800231F23F00302131D04F00304ED18B4B107
:1012F8002B46C9B203F8011B2C19ED436219A3420E
:1013080002F001050BD01DB103F8011BA34206D062
:101318001A4602F8011B5970531CA342F8D1F0BCBD
:101328007047054614468DE7024B13B1024800F09A
:1013380049B9704700000000211100082DE9F04F5D
:101348009F4B87B01A68049002F5A47003920D466B
:1013580005904FF0010A0399DDF81490D1F848413F
:10136800002C43D06268B2F1010838D404F1880B2C
:101378001F320BEB820308F0010C002D00F08C806B
:101388005BF82260AE4200F087801E1F08F1FF372D
:10139800B8F1000F23D0BCF1000F0BD0002D00F0E6
:1013A800A28053F8043CAB4200F09D80013F043E0C
:1013B8007B1C14D0B846E5B13768AF4219D008F1A4
:1013C800FF37A6F10408002D3FD056F8046CAE4252
:1013D8003BD0A8F1040607F1FF38002FEBD141F20A
:1013E8009562C0F60002002A40F0DA8007B0BDE836
:1013F800F08F6168CBEB0602A0184F1E474550F8E6
:10140800783C00F09280002240F8782C002BD6D04F
:10141800D4F8881167680AFA08F008423AD0D4F874
:101428008C21104240F09780049856F8801C984709
:101438006368BB428FD1D9F80010A1428BD108F163
:10144800FF37A6F10408002DBFD16368CBEB080075
:10145800591E2218B94252F8783C69D0002642F841
:10146800786C002BB5D0D4F8880166680AFA07F2C0
:10147800024236D0D4F88C110A4270D058F8800C49
:1014880098476368B3427FF466AFD9F80000A0427A
:101498009FD060E79847CBE76268CBEB0300561E06
:1014A8002118464551F8782C70D0002041F8780C66
:1014B800002A3FF46AAFD4F8880166680AFA08F18E
:1014C800014237D0D4F88C01014255D153F8801C21
:1014D80004980293CDF804C09047029BDDF804C03D
:1014E8002FE09847CDE76168CBEB06002218481E2D
:1014F800B84252F8783C4CD0002142F8781C002BB6
:101508003FF454AFD4F88801D4F804800AFA07F2FB
:10151800024229D19847636843457FF41CAFD9F844
:101528000000A0423FF442AF15E7C4F804806DE71D
:10153800676096E70293CDF804C09047029BDDF8F8
:1015480004C06268B2427FF406AFD9F80010A14225
:101558003FF41BAFFFE656F8800C984768E70498FD
:1015680058F8801C98478CE7D4F88C110A4212D09E
:1015780056F8800C9847CEE753F8800C0293CDF8C4
:1015880004C09047029BDDF804C0DAE7C4F8048081
:101598008EE76760B3E7049856F8801C9847BAE767
:1015A800616849B9236843B12046C9F8003000F0A2
:1015B8006DF8D9F80040D3E62368A1461C46CFE66B
:1015C800B01F00080146002002460346FFF73EBD53
:1015D80008B5FEF789FEFEF7A1FE104B1A684FF416
:1015E8007A70B2FBF0F14A1EB2F1807F09D20C4B3F
:1015F8000C495A60F02081F82300002207209A60E5
:1016080018600520FEF735FE074B186010B1002062
:10161800FEF7A6FEFEF7DAFFFEE700BF0400002093
:1016280010E000E000ED00E084090020002100F057
:1016380004B80C4B5B58435004310B480B4B421811
:101648009A42FFF4F6AF0A4A00F003B8002342F8C2
:10165800043B084B9A42FFF4F9AFFEF7DBFEFFF7B5
:10166800B7FF7047E41F000800000020640800204E
:10167800680800208C090020FFF7FEBF40F25043A5
:10168800C2F200030146186800F008B840F250435F
:10169800C2F200030146186800F010BB2DE9F04FB4
:1016A80001F10B05162D83B0064627D935F007053D
:1016B80027D4A94225D8304600F09EFAB5F5FC7F1C
:1016C80023D2BA4F4FEAD50C07EBCC02D468944228
:1016D80000F0DE816368E268A16823F00300231844
:1016E800CA605868916040F001025A60304600F0C4
:1016F80085FA0834204603B0BDE8F08F1025A942CA
:10170800D9D90C2434600024F4E75FEA552C00F0A2
:101718008B80BCF1040F00F255814FEA951707F151
:10172800380E4FEA4E01A14F07EB8101CC68A14268
:1017380005D10CE0002A7CDAE468A14207D063688E
:1017480023F00300421B0F2AF4DD0EF1FF3E0EF1D9
:10175800010C964B3C6903F1080E744500F0758145
:10176800616821F003014A1B0F2A00F35B81002AFC
:10177800C3F814E0C3F810E069DAB1F5007F80F02F
:101788002F81CA0803EBC2014FF00109921009FA30
:1017980002F95A688868E16049EA0209A060C3F85A
:1017A80004908C60C46001204FEAAC0400FA04F095
:1017B800484556D819EA000F07D12CF0030C400011
:1017C80019EA000F0CF1040CF9D007EBCC094C46D0
:1017D800E046E3689C4207D13AE1002A80F2628140
:1017E800DB689C4200F03481596821F003014A1BF0
:1017F8000F2AF2DD1C465919D86854F808CF8A50C8
:1018080045F0010542F00102CCF80C00C0F808C010
:101818005D6079613961C1F80CE0C1F808E04A609F
:10182800304600F0EBF965E74FEAD50E4FEA4E0176
:1018380079E72218E3685068A16840F00100506019
:10184800CB609960304600F0D9F9083452E7611846
:1018580030464B6843F001024A6000F0CFF9083483
:1018680048E7BC68606820F00309A94504D3C5EBC4
:1018780009030F2B00F38D804D4A4E4B11681868F1
:10188800013104EB090B05EB000300F05A8103F565
:1018980080500F3020F47F6121F00F0C61463046F4
:1018A8008DE8041000F0ACF9B0F1FF3F80469DE8E8
:1018B800041000F05281834500F20F81DFF800A187
:1018C800DAF80030C3456344CAF8003000F04A81B2
:1018D8001268013200F05781CBEB080B5B44CAF861
:1018E800003018F0070100F00B81C1F10800C1F5C4
:1018F8008053804403F1080208EB0C010805030D2E
:10190800C3EB020B3046594600F07AF9431C00F04D
:101918004681C8EB00020BEB020141F00100DAF846
:101928000030C7F808805B44BC42CAF80030C8F8E9
:10193800040015D0B9F10F0F40F2F2806168A9F1E7
:101948000C0222F00702A01801F0010C42EA0C0E6A
:1019580005210F2AC4F804E04160816000F2178174
:10196800154ABC681068834288BF1360134A11681F
:101978008B4288BF1360636823F00300A842C5EB5D
:10198800000301D30F2B04DC304600F037F90024A4
:10199800B0E6621943F0010145F001056560304683
:1019A8005160BA6000F02AF90834A3E65404002014
:1019B8006008002054090020500900204C0900202C
:1019C80058090020BCF1140F7BD9BCF1540F00F268
:1019D8008D804FEA153404F16E0E4FEA4E01A2E6EF
:1019E800480A042872D9142800F2AE8000F15B0975
:1019F8004FEA490207EB8200DFF8F08183688342EF
:101A080000F081805A6822F00302914202D29B685A
:101A18009842F7D1DA68D7F80490E260A360DC60F6
:101A28009460C0E6611942F0010045F00105656067
:101A3800596119614860C1F80CE0C1F808E08A50A2
:101A4800304600F0DBF8083454E6D3F80490AAE6F0
:101A580008F10108083418F0030F7FF4BAAE4946BC
:101A68001CF0030FA1F108040CF1FF3C00F0B0805A
:101A78000968A142F4D07C684000A0423FF6F1AE6C
:101A880000283FF4EEAE044200F0A780C4469CE66E
:101A980004F108036469A34208BF0CF1020C3FF487
:101AA80058AE17E659181C464868DB6854F8082FE2
:101AB80040F001004860D3609A60304600F09EF81C
:101AC80018E60CF15B0E4FEA4E012CE64FEA91182E
:101AD80008F138094FEA49028CE7BC423FF4EEAE00
:101AE800424CA468626822F0030047E7BCF5AA7F6D
:101AF8001CD84FEAD53202F1770E4FEA4E0112E6B2
:101B08004FF48052F8E6D8F804004FEAA902012100
:101B180001FA02F242EA0009C8F804901A467CE782
:101B28000122C8F804204446002027E740F2545315
:101B38009C4524D84FEA954000F17C0E4FEA4E01AF
:101B4800F1E503F1100CA9E654282CD84FEA11321C
:101B580002F16E094FEA49024CE7BC68616821F05E
:101B680003000BE74FEA0B50010D00297FF4B0AEDC
:101B7800B8680CEB090141F001044460F0E6FC216F
:101B88004FF07E0ECFE51A48C0F80080A9E604F1B0
:101B98000801184C304600F091F82368E0E601206F
:101BA8004FF0000BBBE6B0F5AA7F06D84FEAD13359
:101BB80003F177094FEA49021CE740F2545398426F
:101BC8000FD84FEA914000F17C094FEA490211E72A
:101BD8007C6824EA00047C604EE7400008F10408B1
:101BE80051E7FC224FF07E0904E700BF54040020AF
:101BF8006008002058090020704700BF704700BFE8
:101C080038B5074C002305460846236000F0AEF9B6
:101C1800431C00D038BD21680029FBD0296038BD9D
:101C280088090020F8B5224D0F460446FFF7E4FF67
:101C3800AB685E6826F0030606F6EF70C11B0A0B58
:101C4800571E3F03B7F5805F07DB00212046FFF7EB
:101C5800D7FFAB689919884204D02046FFF7CEFF1A
:101C68000020F8BD79422046FFF7CAFF01300DD0A9
:101C7800104BA8681A68F61B46F00106D71B466089
:101C880020461F60FFF7BAFF0120F8BD002120465B
:101C9800FFF7B6FFAB68C21A0F2ADEDD06490968EE
:101CA800401A044942F0010208605A60D5E700BFB3
:101CB8005404002058090020600800202DE9F04154
:101CC8000D460646002955D0FFF796FF55F8041C27
:101CD800DFF86CC1A5F1080421F00103E218DCF873
:101CE80008005768904227F0030765D011F00101FA
:101CF800576032D00021D0194068C00706D4DB19DC
:101D0800906800294AD0D268C260906043F0010010
:101D18006060E350E1B9B3F5007F2DD35A0A042A75
:101D280066D89809383042000CEB820E4449DEF838
:101D38000820724562D0506820F003018B4202D21D
:101D480092689645F7D1D068E060A260D46084605C
:101D58003046BDE8F041FFF751BF55F8085C641BF9
:101D68000CF10808A06840452B443FD0E568C560E1
:101D7800A860C0E7BDE8F081DD080CEBC502DCF81F
:101D880004009168E260AB10012505FA03F31843DB
:101D9800A160CCF804009460CC60D9E7294DA84232
:101DA800B1D143F00102CCF81440CCF81040E06007
:101DB800A0606260E350CBE7FF18CB0707D455F863
:101DC800081C641A7F18E368A068C36098601E4AFC
:101DD800CCF80840116847F001038F426360B7D31D
:101DE8001A4A30461168FFF71DFFB1E7012182E763
:101DF800142A0CD802F15B00420095E74B6880106A
:101E0800012505FA00F003434B6010469CE7542A6D
:101E180003D8180B6E30420086E7B2F5AA7F03D8C4
:101E2800D80B773042007FE740F254518A4203D8FA
:101E3800980C7C30420077E7FC227E2074E700BFD4
:101E4800540400205C0400205C0800205409002091
:101E580038B50C460968054609B1FFF7F9FF284669
:101E68002146BDE83840FFF729BF00BF214B19685C
:101E7800884270B5054630D0C26CA2B10020064633
:101E880052F8201039B10C682846FFF717FF214691
:101E9800002CF8D1EA6C0136202E3046F0D12846C5
:101EA8001146FFF70BFF296C11B12846FFF706FF13
:101EB800D5F8481151B105F5A676B14206D00C689F
:101EC8002846FFF7FBFEA6422146F8D1696D11B1FD
:101ED8002846FFF7F3FEAB6B03B970BDE96B2846E4
:101EE8008847D5F8E0120029F7D02846BDE87040A9
:101EF800FFF7AEBF500400202DE9F84380460028C4
:101F08002ED0D8F8487117B37C68651E1CD40234EB
:101F180007EB840405F0010954F8040D80476E1E90
:101F280095B1B9F1000F05D054F8041D013E88475A
:101F3800731C09D054F8042D9047751E54F8043DBD
:101F48009847023E002DF5D13F68002FDCD1D8F824
:101F58003C1019B140468847BDE8F883BDE8F883CE
:101F6800014BD3F80080CCE750040020094A1368DD
:101F78006BB118186946884202D810601846704735
:101F8800054B0C221A604FF0FF3318467047034B7D
:101F98001360EEE780090020880900208C090020E2
:101FA800FEE700BF430000002800002000000000FA
:101FB800F8B500BFF8BC08BC9E467047F8B500BF2E
:081FC800F8BC08BC9E467047FE
:081FD0000CE2FF7F010000009C
:081FD80031130008AD010008FF
:041FE000890100086B
:101FE40000000000007A030A000000000000000066
:101FF40001020304060708090000000001020304AB
:10200400010203040607080900000000140300206D
:102014007C030020E4030020000000000000000016
:1020240000000000000000000000000000000000AC
:10203400000000000000000000000000AC1F0008C9
:10204400000000000000000000000000000000008C
:10205400000000000000000000000000000000007C
:10206400000000000000000000000000000000006C
:10207400000000000000000000000000000000005C
:10208400000000000000000000000000000000004C
:10209400000000000000000000000000000000003C
:1020A400000000000000000000000000000000002C
:1020B40001000000000000000E33CDAB34126DE6C9
:1020C400ECDE05000B000000000000000000000032
:1020D40000000000000000000000000000000000FC
:1020E40000000000000000000000000000000000EC
:1020F40000000000000000000000000000000000DC
:1021040000000000000000000000000000000000CB
:1024340028000020000000000000000054040020D8
:10244400540400205C0400205C0400206404002088
:10245400640400206C0400206C0400207404002038
:10246400740400207C0400207C04002084040020E8
:10247400840400208C0400208C0400209404002098
:10248400940400209C0400209C040020A404002048
:10249400A4040020AC040020AC040020B4040020F8
:1024A400B4040020BC040020BC040020C4040020A8
:1024B400C4040020CC040020CC040020D404002058
:1024C400D4040020DC040020DC040020E404002008
:1024D400E4040020EC040020EC040020F4040020B8
:1024E400F4040020FC040020FC0400200405002067
:1024F400040500200C0500200C0500201405002014
:10250400140500201C0500201C05002024050020C3
:10251400240500202C0500202C0500203405002073
:10252400340500203C0500203C0500204405002023
:10253400440500204C0500204C05002054050020D3
:10254400540500205C0500205C0500206405002083
:10255400640500206C0500206C0500207405002033
:10256400740500207C0500207C05002084050020E3
:10257400840500208C0500208C0500209405002093
:10258400940500209C0500209C050020A405002043
:10259400A4050020AC050020AC050020B4050020F3
:1025A400B4050020BC050020BC050020C4050020A3
:1025B400C4050020CC050020CC050020D405002053
:1025C400D4050020DC050020DC050020E405002003
:1025D400E4050020EC050020EC050020F4050020B3
:1025E400F4050020FC050020FC0500200406002062
:1025F400040600200C0600200C060020140600200F
:10260400140600201C0600201C06002024060020BE
:10261400240600202C0600202C060020340600206E
:10262400340600203C0600203C060020440600201E
:10263400440600204C0600204C06002054060020CE
:10264400540600205C0600205C060020640600207E
:10265400640600206C0600206C060020740600202E
:10266400740600207C0600207C06002084060020DE
:10267400840600208C0600208C060020940600208E
:10268400940600209C0600209C060020A40600203E
:10269400A4060020AC060020AC060020B4060020EE
:1026A400B4060020BC060020BC060020C40600209E
:1026B400C4060020CC060020CC060020D40600204E
:1026C400D4060020DC060020DC060020E4060020FE
:1026D400E4060020EC060020EC060020F4060020AE
:1026E400F4060020FC060020FC060020040700205D
:1026F400040700200C0700200C070020140700200A
:10270400140700201C0700201C07002024070020B9
:10271400240700202C0700202C0700203407002069
:10272400340700203C0700203C0700204407002019
:10273400440700204C0700204C07002054070020C9
:10274400540700205C0700205C0700206407002079
:10275400640700206C0700206C0700207407002029
:10276400740700207C0700207C07002084070020D9
:10277400840700208C0700208C0700209407002089
:10278400940700209C0700209C070020A407002039
:10279400A4070020AC070020AC070020B4070020E9
:1027A400B4070020BC070020BC070020C407002099
:1027B400C4070020CC070020CC070020D407002049
:1027C400D4070020DC070020DC070020E4070020F9
:1027D400E4070020EC070020EC070020F4070020A9
:1027E400F4070020FC070020FC0700200408002058
:1027F400040800200C0800200C0800201408002005
:10280400140800201C0800201C08002024080020B4
:10281400240800202C0800202C0800203408002064
:10282400340800203C0800203C0800204408002014
:10283400440800204C0800204C080020000002003E
:04284400FFFFFFFF94
:04284800000000008C
:0400000508001635A4
:00000001FF
